:1000000000000120CD250000F5250000E9090000D1
:10001000F9250000FB250000FD2500000000000080
:10002000000000000000000000000000FF250000AC
:100030000126000000000000032600000526000045
:100040000726000007260000E91C00003D1F0000F5
:10005000C91E00000726000007260000211D000021
:1000600007260000072600000726000007260000DC
:1000700007260000072600000726000007260000CC
:1000800007260000050600000726000007260000DE
:10009000A106000007260000072600000726000032
:1000A000072600000726000007260000D5040000F0
:1000B00007260000072600000000000000000000E6
:1000C000072600000726000007260000072600007C
:1000D0000726000007260000072600000000000099
:1000E0000000000000000000000000000000000010
:1000F0000000000000000000000000000000000000
:1001000000000000000000000000000000000000EF
:1001100000000000000000000000000000000000DF
:1001200000000000000000000000000000000000CF
:1001300000000000000000000000000000000000BF
:1001400000000000000000000000000000000000AF
:10015000000000000000000000000000000000009F
:10016000000000000000000000000000000000008F
:10017000000000000000000000000000000000007F
:10018000000000000000000000000000000000006F
:10019000000000000000000000000000000000005F
:1001A000000000000000000000000000000000004F
:1001B000000000000000000000000000000000003F
:1001C000000000000000000000000000000000002F
:1001D000000000000000000000000000000000001F
:1001E000000000000000000000000000000000000F
:1001F00000000000000000000000000000000000FF
:100200000348044B834202D0034B03B118477047A5
:10021000CC090020CC090020000000000548064958
:100220000B1AD90F01EBA301491002D0034B03B104
:1002300018477047CC090020CC09002000000000BE
:1002400010B5064C237843B9FFF7DAFF044B13B11E
:100250000448AFF300800123237010BDCC090020B7
:1002600000000000F4AA000008B5044B1BB10449CB
:100270000448AFF30080BDE80840CFE7000000006D
:10028000D0090020F4AA0000A3F5803A704700BF0F
:10029000154B002B08BF114B9D46FFF7F5FF0021C2
:1002A0008B460F461148124A121A02F05DFD0C4BA4
:1002B000002B00D098470B4B002B00D09847002014
:1002C000002104000D000B4802F09EF902F0CCF969
:1002D0002000290000F088F802F09CF900000800D6
:1002E000000000000000000000000120CC090020F8
:1002F000581400203526000070B5044680B9134814
:10030000134E02F095FD642546F001064FF47A4045
:10031000B047013DFAD10F4A1C210E2000F05CF9D4
:100320000D4A136813B92361146070BDE168D86881
:100330008142F8D31A6912B1D068814202D81C6197
:100340002261F2E713461269F5E700BF68960000E4
:10035000D0960000AA960000E8090020014B18681A
:10036000704700BFE8090020024B186808B1026915
:100370001A607047E8090020074B1B6803EB8000F8
:10038000D0F8FC3121B923F00303C0F8FC317047E9
:1003900043F00303F9E700BF00000020044B196895
:1003A00001220B6802FA00F003430B60704700BFA4
:1003B00000000020044B196801220B6802FA00F0CB
:1003C00023EA00030B60704700000020054B1A6809
:1003D0000123D26883401340C34014BF0120002092
:1003E000704700BF000000202DE9F0414FF40041AC
:1003F000002001F007F818B1314A4E2100F0ECF866
:1004000000F028FF2F48304C304F02F011FD00F073
:100410009DF8002644F0010401210420FFF7ACFF01
:100420000420FFF7C7FF8020A0470420FFF7B6FF96
:100430004FF47070A0470420FFF7BCFF0021042098
:10044000FFF79AFF00F07AF805460420FFF7BEFF99
:10045000A0B90420FFF7BAFF28B300F06FF8804678
:100460000420FFF7B3FF20BB00F068F8A0EB080002
:1004700000EB80001D22B0FBF2F205E000F05EF818
:10048000401BB842E1D900221148314602F0D0FCAD
:1004900006F101084FF47A754FF47A40A047013D08
:1004A000FAD14646B8E700F049F8401BB842D0D927
:1004B000E9E700F043F8401BB842D1D9E3E700BFB9
:1004C000D6960000DD960000009700003F420F0026
:1004D000EF96000070B5184D0023C5F8403172B694
:1004E0000126FFF73BFF40B9FFF738FFE8B962B6D6
:1004F00070BD204602F0E4F8F3E7FFF72FFFC26873
:100500006E64D5F844359A42EED8FFF72DFF0446C5
:10051000036898472379002BEBD0D4E902231344D6
:10052000E3602046FFF7E8FEDBE7FFF717FF024B2B
:10053000C268C3F84025DAE700B00140024B01224F
:100540005A64D3F84405704700B001400A4B0322B7
:10055000C3F808250422C3F810250122DA601A60C6
:10056000D3F8042342F48032C3F80423034B4FF042
:1005700000621A60704700BF00B0014000E100E077
:1005800082B001238DF807309DF80730114B1860B9
:10059000596044F2010188429A6012D044F202018B
:1005A000884206D1DA60DA6812889A61DA6852689D
:1005B000DA6172B69DF80730002BFBD162B602B04B
:1005C00070471A611A6992685A611A6912689A61C9
:1005D0001A69ECE7EC09002000B583B002900091A5
:1005E000019244F2010071466A4601F097FF03B0A0
:1005F00000BD0000024B4FF43C6043F0010318477C
:1006000010970000F8B51F491F4B0025C1F8405155
:10061000C1F84451C1F84851C1F84C51C1F80051DA
:10062000C1F804511B684BB3D1F804451749096858
:10063000641A24F07F442F461A68A24209D8A41AEB
:1006400015441A7CDE691AB1D3E905201F7490475E
:10065000AEB90F4A0F4B11781B788B4205D101338D
:10066000DBB2022B08BF0023137012780A4B43F849
:1006700022500A4B4FF48012C3F80021F8BD3346D4
:10068000DAE700BF001001402C0B0020280B0020EF
:10069000250B0020240B00201C0B002000E100E0B3
:1006A0002DE9F04FA14AA24913780978A14D99424A
:1006B00085B03CD00133DBB2022B08BF002313709E
:1006C0009D4912789D4B0F6853F822003B1823F088
:1006D0007F4300220B602B6816461446944613B9DC
:1006E00042B12B6006E0196881420ED902B12B603D
:1006F000091A196001272B68DFF848A201934FF00F
:100700000008BEB9DFF844B262E0401A0C44D96870
:10071000D3F81CE0C3F800C031B13A1922F07F428F
:10072000C3E90121DE611E4673460122D7E7002698
:100730003746E0E73446F6697F4A63681268DFF8B7
:1007400010C2A068991A21F07F41614500F2A8808B
:1007500001442160012222742A680023C4E9013384
:10076000E361002A40F0A5802C60CAE79BF80210E4
:100770005A1CD2B291428BF8002004BF00228BF8A1
:100780000020182202FB03B32A6819799C68022909
:1007900077D0032900F08180012919D1207CB8B9D4
:1007A000D96861601A69A2605A69E2609B69A361B5
:1007B000634B1B78002B18BF01466160BCE78C427D
:1007C00000F091808946C9690029F8D1002323747B
:1007D0009BF800309BF801209A42C7D12B68B8F1F2
:1007E000000F04D1019A9A4201D1002F43D0002B6F
:1007F00041D0D3F800A0534D4F4BD5F804751C6879
:10080000DFF850813E1B98F8003026F07F46033613
:100810009BB94FF48033C5F84433C5F804334A4BD1
:100820004FF400324FF00109C3F880211A60C5F877
:100830000090FFF7DFFE88F80090B2452CBF5444CB
:10084000A41924F07F44C5F84045D5F80435DB1BD6
:1008500023F07F43E41B033324F07F44A3420AD9EF
:10086000D5F80435C5F84035FFF7C4FE364B4FF4D4
:100870000032C3F80021324B00221A7005B0BDE8E7
:10088000F08F114691469FE71174D2690123002A27
:10089000FAD1002B9CD02A609AE700231946F6E78C
:1008A000D31A23F07F43834234BFC31A002323604B
:1008B00050E721681368994213D8591A1160E26110
:1008C00052E7091AD8691A4638B1034618688842AF
:1008D000F7D3401A1860184613462160E061DC61C6
:1008E0000FE71346F2E74C4511D1D3692B6073B97A
:1008F000DFF844E00120CDE90212CAF80800CEF882
:1009000000300F4B1870FFF775FEDDE902120B681F
:10091000C969C9F81C1011B1086803440B602B6841
:10092000934218BF4FF0010850E700BF240B00208E
:10093000250B00202C0B0020280B00201C0B002076
:10094000180B00200010014000E100E00C0A00201C
:10095000FEFF7F00190B002072B6024A13680133B4
:1009600013607047300B0020034A1368013B13608B
:1009700003B962B6704700BF300B0020EFF3058368
:10098000C3F308032BB9EFF31480C04300F0010058
:10099000704701207047000008B5FFF7EFFF0128FE
:1009A00003D00449432000F0CDF8BDE80840FFF72C
:1009B000D3BF00BF1697000008B5FFF7DFFF01287F
:1009C00003D00449512000F0BDF8BDE80840FFF70E
:1009D000CBBF00BF16970000024B1B680021986830
:1009E00002F04CBA100000201EF0040F1CBFEFF301
:1009F00009800AE0EFF308800549064A884201D8D9
:100A0000904202D88D464FF00000034B184700007B
:100A10000000012000E00020410A0000BFF34F8FDA
:100A20000549064BCA6802F4E0621343CB60BFF38A
:100A30004F8F00BFFDE700BF00ED00E00400FA05A6
:100A40002DE9F347054600F00BFF00F035FD0028C7
:100A5000FBD12F4C2F48304B241AE40824049F6A02
:100A600044F00104002D4ED0AA692C49204600F024
:100A70008FFEEB680193AB68294900932046D5E9C6
:100A8000002300F0A4FEEB6900932649D5E9042376
:100A9000204600F090FE204BDB6A980703D52249E0
:100AA000204600F071FEDFF89490DFF894A0002655
:100AB0004FF0010808FA06F33B4206D059F8262009
:100AC0001AB15146204600F063FE01361A2EF1D1CC
:100AD000390605D5104B15495A6B204600F058FED3
:100AE0003A0405D50C4B12499A6B204600F050FE93
:100AF000104B1B68DB0700D500BE2846FFF78EFFB2
:100B000002B0BDE8F0870C49204600F03DFEC2E788
:100B100030AB0000F8AA000000ED00E06B97000089
:100B200080970000B5970000109800005F980000C3
:100B30007F980000F0ED00E0DD9700005C9D000074
:100B40005498000007B5ADF8000001916A460021F5
:100B500044F2020001F0E2FC03B05DF804FB10B5C2
:100B6000034653E8000F0A4643E8002494F0000FC0
:100B7000F7D110BD10B5034653E8002F42EA01003B
:100B800043E8000494F0000FF6D110BD10B5034601
:100B900053E8000F00EA010243E8002494F0000F3C
:100BA000F6D110BD10B5034653E8002F02EB01004B
:100BB00043E8000494F0000FF6D110BD10B50346D1
:100BC00053E8002FA2EB010043E8000494F0000F6B
:100BD000F6D110BD0121FFF7CDBF0021FFF7D6BF31
:100BE00010B50446002834D003681BB91A49FF2009
:100BF000FFF7A8FF636823B917494FF48070FFF728
:100C0000A1FFA36823B9144940F20110FFF79AFF2E
:100C1000E36823B910494FF48170FFF793FF238AEB
:100C200023B90D4940F20310FFF78CFFD4E90123EB
:100C300021689B1ADBB20A60013BDBB2FF2B226802
:100C400002D10020107110BD1168481C10600B709B
:100C5000F2E70E20F7E700BFC49D000038B5044658
:100C600020B912494FF49270FFF76CFF0020FFF794
:100C700093FE2268616813688B4215D9591E116072
:100C800013F8015C228AE36802FB05352268A36839
:100C900011685B1A1179DBB2994200D213710020FE
:100CA000FFF78AFE284638BD0025F8E7C49D0000FE
:100CB00038B50C46054620B90E4940F24710FFF7FB
:100CC00041FF24B90B494FF4A470FFF73BFF00200C
:100CD000FFF762FE2A681368591C1160E968641AFC
:100CE000298AB4FBF1F41C70BDE838400020FFF7FE
:100CF00063BE00BFC49D000010B5044618B9064984
:100D00003120FFF71FFFA2682AB1636921682069BB
:100D100098470023A36010BD149E00000EB433B5A5
:100D2000059D044618B911494220FFF70BFF63697E
:100D30001BB90E494320FFF705FF23681BB90B4978
:100D40004420FFF7FFFE63681BB908494520FFF701
:100D5000F9FE35B106AB01AA29462046019300F001
:100D600071F802B0BDE8304003B07047149E000037
:100D7000826830B40468551C8560A154D0E9013202
:100D80009A4202D330BCFFF7B7BF30BC70470000B7
:100D90002DE9F84F9846DDE90A43154682460F468D
:100DA0000A464FF00109AA420FD2C14538BFC146D9
:100DB00013F0010B01D16CB900240126B8F1010F29
:100DC0001BD908F1FF386E43F8E709F10109B2FBBE
:100DD000F5F2E8E79B070ED5B8F1000F0CBF3026FF
:100DE0002026A145E9D2013C31465046FFF7C0FF1D
:100DF000002CF6D1E0E72026F3E7B7FBF6F39D429F
:100E0000E1D9DFF83C80B7FBF6F3504618F8031041
:100E100006FB1377FFF7ACFF3346AB42B6FBF5F6A4
:100E2000F1D2BBF1000F02D00CB1A14501D3BDE856
:100E3000F88F20215046013CFFF79AFFF4E700BFEE
:100E4000A79E00002DE9F74F88461746054620B9B2
:100E5000B1494FF4A270FFF775FE6B6923B9AE4933
:100E60004FF4A370FFF76EFE2B6823B9AA4940F236
:100E70004710FFF767FE6B6823B9A7494FF4A470CA
:100E8000FFF760FEB8F1000F00F0428118F8011B77
:100E900049B92B7B002B00F03B81284603B0BDE80D
:100EA000F04FFFF729BF252940F0B780002698F8BA
:100EB00000302D2B424608F1010823D0302B24D0DE
:100EC0002B2B25D000242A2B02F1010123D13B68D2
:100ED0001A1D3A601B680A461C4413782E2B26D133
:100EE00001324FF0000A104610F8011BA1F1300C3E
:100EF000BCF1090F1DD80A2303FB0A13A3F1300A22
:100F00000246F0E746F00106D1E746F00206CEE7DA
:100F100046F00406CBE711F8013CA3F130000928A4
:100F2000DBD80A2202FB0434303C0A46CBE74FF000
:100F3000000A12F8011B01F0FB0068289046F8D067
:100F4000782909D86F290CD8632962D022D825299D
:100F500063D0582900F0888098F80030002B95D194
:100F600097E770390829F7D801A353F821F000BF9B
:100F7000EB100000590F0000590F0000791000001D
:100F8000590F000057100000590F0000590F0000C2
:100F900069100000642901D06929DDD13A68111D6A
:100FA0003960D2F8009089EAE972A2EBE9724FF059
:100FB000010B092A35DCD34538BFD3462CB1B9F132
:100FC000000F01DB720700D5013CB30702D5BAF16F
:100FD000000F03D0F00701D44CBB0024B9F1000F7F
:100FE0002DDAC9F100092D212846FFF7C1FE06F0D0
:100FF0000302022A04D1BAF1000F01D11CBB002464
:10100000CDE9004653460A2249462846FFF7C0FE6E
:10101000A2E73B681A1D3A6019782846FFF7A8FE38
:101020009AE70A230BF1010BB2FBF3F2C1E7A345E8
:10103000D4D220212846013CFFF79AFECCE7710765
:10104000D5D52B21D0E7A345DAD230212846013C63
:10105000FFF78EFED2E73968CDE900460A1D3A60F7
:1010600053460A220968D0E739680A1D3A60CDE97B
:10107000004653461022F5E73B681A1D3A6016F009
:101080000106D3F8009028D1B9F1000F03D04846EB
:1010900002F016F80646B44200D904BB09F1FF3944
:1010A00019F8011F00293FF457AF2846FFF760FEEB
:1010B000F6E728460136FFF75BFE19F8061000290F
:1010C000F7D1A642BFF448AF002C3FF445AF202132
:1010D0002846013CFFF74CFEF3E70026EDE7202110
:1010E0002846013CFFF744FED5E73B681A1D3A60ED
:1010F000302128461C68FFF73BFE78212846FFF781
:1011000037FE00220823CDE90032214610227CE779
:1011100003B0BDE8F08F00BF5A9E0000704700008A
:1011200007B5044B0093044A402300F032F803B0A3
:101130005DF804FB3D110000350B00202DE9F8435C
:1011400088461446B2B10F4B0F4E0325002743F0DB
:101150000109224608EB0701002001F01DF80744B1
:10116000241A48B933782BB14FF47A40C847013D6F
:1011700002D13570BDE8F88301233370002CE8D12B
:10118000F8E700BFC09E0000340B0020704701F05C
:1011900051B8F0B595B01D46164608460C4600F00D
:1011A00040FD1A9B0D93CDE9086500252B460822CA
:1011B00005A920460A958DF82C500C9500F058FD95
:1011C000079B0293069B03939DF814308DF81150F2
:1011D00003F00302012A1DD1BDF81420059DC3F3BD
:1011E000C203C2F383168DF81030B20008230EA993
:1011F000204600F03DFDC5F3952508AB009332462F
:1012000002AB0EA9284600F0A1FB204600F00DFD20
:1012100015B0F0BD022AF8D1BDF81650C3F3C203D1
:10122000C5F389158DF810300827082D2E4628BFE4
:1012300008263B4632460EA9204600F019FDAD1B9C
:1012400008AB02AA31460EA8374400F0E3FB002D9C
:10125000EBD1DAE708B5FFF79AFF0748042100F061
:10126000D5FA002803DA05494120FFF76BFC044B4F
:1012700001225A7108BD00BF54AB0000D49E00008B
:1012800004000020037813F0040216D003F00303D7
:10129000012B03D0022B09D0012070470A68008877
:1012A0000232C0F3831002440A60F5E70B684288FB
:1012B000023303EB92130B60EEE710467047000019
:1012C0002DE9F04F044687B0861C00200F461546D6
:1012D000FFF762FB494801683960D0E901321344E5
:1012E00001335B1A824600F21C4700F5836900F265
:1012F0001448B3421BD30020002D7AD004F00F0312
:101300009B0143F0050363F30F00DAF80020DAF8DD
:1013100008301340033316444AF823000020CAF86B
:101320000060FFF749FB012007B0BDE8F08F012105
:101330003846FFF737FC4846FFF74CFC4046FFF7BE
:1013400049FCDAF80400DAF808B0029000EA0B0071
:1013500003300AEB800002A9FFF794FF029B0246CC
:10136000F8B90BEA03010AEB810103F1020CC8682A
:101370000390013303EA0B0B0AEB8B0B00F0030025
:101380000128DBF80C10CDF808C02AD002280BD0B9
:101390001B4901924FF4BF70FFF7D4FB019A9346AB
:1013A0000CE00BEA0300D3E7BDF80E30C3F389135A
:1013B00003334FEA114B0CEB930302934046FFF7C4
:1013C0000CFC10B1029BCAF8043059463846FFF7AE
:1013D000E9FBDAE901231344DAF8002001339B1A10
:1013E00087E7BDF80C30C3F383134FEA114B634416
:1013F000E3E7A40544F0060087E700BF480C00209F
:10140000439F00000B4B0C48FF2210B59A6000224E
:10141000C3F81824C3E90022C3F81424012283F876
:10142000202400F0B7FB044610B9044800F050FB3C
:10143000204610BD480C002040AB0000B09F0000CB
:1014400030B50A4C71B10A4A0A49121BD20800236E
:101450009A4201D1002030BD31F82350854202D09C
:101460000133F5E7034654F83300F4E7F8AA000027
:1014700040AB0000CC090020094B013903EBC00050
:10148000032909D8DFE801F00A02040604207047A6
:1014900000797047407970470020704702207047FC
:1014A000F8AA0000034BD3E90030C31A5842584150
:1014B000704700BF480C00202DE9F04385B0FFF7CE
:1014C000F1FF0646002840F0F5807B4DC5F8180472
:1014D000BFF34F8F6B68AC6800932340033305EB79
:1014E00083006946FFF7CEFE009B18B1D5F818249B
:1014F000002A5FD004EA0302991C013305EB820243
:10150000234005EB8303D268DB68029302F00303F8
:10151000022B0192009160D1BDF806306748C3F3F9
:101520008917502FB84628BF4FF0500868F38F1323
:1015300008F10801ADF8063000F044FB064600282B
:1015400000F0A38000F06DFB0023082201A93046C3
:1015500000F07AFB009924EA01020132B8EB820F15
:101560004FEA820332D95FFA88F85BB32140DCB2DC
:10157000A8EB040803315FFA88F9A046504C05EB4C
:10158000810108234246304600F05EFB34B108F189
:1015900008034A462146304600F056FB009B0337BD
:1015A00003EB97070097D5F81834002B49D1D5F8ED
:1015B000104459E02A689A428FD86A60304605B0D4
:1015C000BDE8F0833E491C469946DAE70C40E11C31
:1015D0000823424605EB8101DDE7012B55D1BDF81B
:1015E00004303648C3F38311062928BF062161F36E
:1015F000891302318900ADF8043000F0E3FA0646A1
:10160000002842D000F00DFB0023082201A930463B
:1016100000F01AFB0027BDF80420C2F38312BB00C0
:10162000974203F10803BED200994A1C21400331BE
:10163000009205EB81010422304600F005FB0137E2
:10164000E9E7304600F0F1FAFFF72CFF80F00100E7
:10165000C6B2B3E7E3685B7923B1236831461B6800
:1016600020469847E3681C68002CF3D1304600F010
:10167000DCFA2046FFF790F9D5F818340BB9009B37
:101680006B600020FFF798F9DEE7D5F8104454B9F5
:101690000C4B0D480D49C01AC008000440F0020070
:1016A00000F072F8D0E7236820469B689847E3680B
:1016B0001C68ECE7002681E7480C002040AB0000E6
:1016C000540C0020F8AA000028AB00009A9F0000EC
:1016D0002DE9F74F274D04460F46914601A90122F7
:1016E0001846D5F808A09846FFF7EAFD78B3019EA2
:1016F0000023B01C434503EB000132D11E480021FA
:10170000FFF72DFA80F3100B1C4B1D4A4FEA1449CA
:101710009B1AB9EBD30F04D31A4940F2A310FFF779
:1017200011FA731C03EA0A03E40005EB830304F0D7
:10173000380449EA0B4006EA0A0644F00104D8607E
:10174000033644EA881343EA872345F8263095F8A0
:1017500020341BB1FFF7B0FE0028FBD103B0BDE879
:10176000F08F0AEA010105EB810159F82320CA60D4
:101770000133BFE7480C00206410002040AB00009C
:10178000F8AA0000439F000000231A46FFF7A0BFFD
:1017900007B50123019201AAFFF79AFF03B05DF894
:1017A00004FB07B5CDE9002302236A46FFF790FF4B
:1017B00003B05DF804FB1FB5CDE90123069B03933D
:1017C00001AA0323FFF784FF05B05DF804FB1FB5F2
:1017D000CDE90023069B0293079B03936A460423EB
:1017E000FFF776FF05B05DF804FB7FB5CDE9012377
:1017F000089B0393099B04930A9B059301AA052365
:10180000FFF766FF07B05DF804FB000030B5134A30
:10181000D2F8104403460020214649B9DC68207103
:10182000D2F8104454B9C2F81034DB68196030BDE6
:10183000C9680D7985420AD00968EEE7E468D9687D
:1018400024680C60D2F81024D2681360EFE70130EE
:101850000A28E1D14FF0FF30E9E700BF480C002033
:1018600038B5094A0123D2F8104482F820341D46C5
:1018700004B938BDE3685D71236820465B6898470A
:10188000E3681C68F4E700BF480C002007B5034676
:101890000846197A052911D05B7A2BB1094A0A4901
:1018A0000190FFF73BFA019808490190FFF736FADB
:1018B000019803B05DF804EBFFF71EBA002AF8D0D8
:1018C000F2E700BFBC9F0000C19F0000E19F000045
:1018D00030B5C38885B004460D4633B1144A009232
:1018E0001449154A2846FFF719FA217A05291DD00F
:1018F000637A4BB1A088FFF7BFFD104B104953F836
:1019000020202846FFF70AFA227A0E4BA08853F8C7
:10191000222003920021FFF793FD039A0A49034610
:10192000284605B0BDE83040FFF7F8B905B030BD36
:10193000BC9F0000CC9F0000C49F000048A0000096
:10194000C19F00006CA00000E49F00002DE9F0435F
:1019500085B01F460C9D002395F80C902B7306460E
:101960000C46904629463846FFF7B2FFB8F1060FFD
:1019700009D8DFE808F00412181F28334000314668
:101980002846FFF7CBF9002229463846FFF77EFFAD
:1019900085F80C9005B0BDE8F083226831462846F2
:1019A000FFF7BCF9EFE7D4E9002331462846FFF7FB
:1019B000B5F9E8E7A36800933146D4E90023284647
:1019C000FFF7ACF9DFE7E3680193A36800933146C2
:1019D000D4E900232846FFF7A1F9D4E7236902934D
:1019E000E3680193A36800933146D4E900232846B5
:1019F000FFF794F9C7E76369039323690293E368E8
:101A00000193A36800933146D4E900232846FFF7E9
:101A100085F9B8E708292DE9F84F80460E461746A4
:101A20001C463BD8002593F80C901D7319461046B0
:101A3000FFF74EFFDFF88CA0DFF88CB0AE422FD955
:101A400018F8052059462046FFF768F90135082D9A
:101A5000F4D11949194DDFF874A02046FFF75EF95B
:101A60004FF0000B5E4522D918F80B207E2A1CD8B7
:101A7000134BD15C11F0970F08BF2E225146204620
:101A8000FFF74CF90BF1010BBBF1080FEAD1012272
:101A900021463846FFF7FAFE84F80C90BDE8F88F2F
:101AA00051462046FFF73AF9D0E72E22E6E72946CD
:101AB0002046FFF733F9E5E7F89F0000F69F0000A6
:101AC00065A70000F49F0000EE9F0000FA9F000051
:101AD0008268002393608268136182685361826820
:101AE000D360826853608268136070472DE9F74FB6
:101AF00099469DF83030009388469346064618B9BB
:101B00002349B620FFF71EF8F18872794A43043A58
:101B10004A4505D81E490192C420FFF713F8019ADF
:101B2000DBF80070B6F806A007EB0901914209F155
:101B3000040488BFA2EB0907B4FBFAF5CBF80070E8
:101B40000AFB154445B9AAEB040BBB4528BFBB46AD
:101B50002FB903B0BDE8F08F3668013DF2E7009B76
:101B6000043408EB050034445A466BB12146A7EB18
:101B70000B0701F05FF8BA455D443668D3464FF075
:101B8000000428BFBB46E3E701462046EFE700BF5D
:101B900089A00000FFF724B8F8B546790146721E07
:101BA0000546002393422D6803D30024A64202D8A1
:101BB000F8BD0133F6E70F682846FFF779F80134DE
:101BC0003946F3E72DE9F843CD1C068A0746FFF7AF
:101BD00045F8043E35440446B5FBF6F5F0B14FF444
:101BE0008073EDB28380C680013D076081464FF06F
:101BF0000008A84512D23846FFF730F8064648B12B
:101C000063790133637108F10108C9F800000760C6
:101C10008146EEE72046FFF7BFFF34462046BDE889
:101C2000F88301210430FEF7BDBF10B50121044641
:101C30000430FEF7C3FF10F0FF0F04D12046BDE8CB
:101C40001040FFF7A9BF10BD1FB514460392002234
:101C5000009203AAFFF74AFF039BA34203D0034964
:101C6000F620FEF76FFF04B010BD00BF89A0000092
:101C70001FB5144603920122009203AAFFF736FF14
:101C8000039BA34204D003494FF48070FEF75AFF30
:101C900004B010BD89A0000010B50D49A1F58C72EB
:101CA000914201D800200FE08C1AE30F03EBE4030C
:101CB0005B1002EBC30452F83330834205D802D2E2
:101CC00004F10802ECE7606810BD2146E8E700BFB8
:101CD00098A5000008B5FFF7DFFF024B002808BFFA
:101CE000184608BD6AA4000010B5054C22681AB950
:101CF00004495120FEF726FF2368BDE8104018472D
:101D00000411002098A5000000F1804000F5E0409B
:101D1000002382B0036003680193019B02B0704707
:101D2000F0B5504B504C1B6885B0002B3DD04FF4A4
:101D3000827094F82E20FFF7E7FF2AB394F82F3033
:101D400013BB4A4B1B68002B33D04FF48070FFF756
:101D5000DBFF638B94F82D108B424FD922895B1ADD
:101D60009BB292B26383D31A626802EB4303404A88
:101D7000C2F82C36C2F830164FF48270FFF7C4FF59
:101D80003C4B01221A6014E0636802932389ADF88A
:101D90000C30E36800218DF8041023BB2374236802
:101DA00001A89847002384F82F3094F82E30002B98
:101DB000C7D1314B1B685BB14FF48870FFF7A4FFAC
:101DC0000023237402238DF8043001A82368984768
:101DD0002A4B1B68EBB14FF48A70FFF795FF002385
:101DE000237405B0F0BD208B608363602081E160C7
:101DF000002AD4D11E4B01221A60D0E7BCD1E3687F
:101E0000012284F82F2013B100226283AFE763839D
:101E1000B2E766694FF000470125002EE1D0B6FA1F
:101E200086F227FA02F34632920026EA030602F10E
:101E3000804303F5E0431B68002BEED01046FFF70C
:101E400063FFA2F58C72D30882F00402C2F3800211
:101E50008DF808308DF8045023688DF8092001A80A
:101E60009847DAE7047100400C110020007100402F
:101E70000070004004700040107100401471004078
:101E800002494FF4F370FEF75DBE00BFF1A50000FC
:101E90001F2810B5044601D9FFF7F2FF01204FF0CB
:101EA000A04300FA04F4C3F80C4510BD1F2810B578
:101EB000044601D9FFF7E4FF01204FF0A04300FAE8
:101EC00004F4C3F8084510BD13B54FF04023D3F810
:101ED00018310BB3114B124C00221A601B6801938E
:101EE000019B236823B90F494FF42770FEF72AFEA0
:101EF000E07FFF2803D0A37F5BB1FFF7C9FF00237A
:101F000063772372D4E90031074802B0BDE810407E
:101F10001847FFF7CBFFF2E702B010BD18410040B1
:101F20003C11002034A6000044110020002343503F
:101F300082B043580193019B02B07047F0B54F4CFB
:101F4000236887B023B94E4940F24520FEF7FAFDD9
:101F50004C48D0F8243105469BB14FF49271FFF7FD
:101F6000E5FFD0F8043163B9A368C0F80833022351
:101F7000A360A368C0F8043301230362436107B080
:101F8000F0BDD5F80431002B49D03F4F3D484FF408
:101F90008271FFF7CBFF0FCF01AE0FC63B683360F6
:101FA00094F82E307BB1237B012B0CBFD5F83C2558
:101FB000D5F84C250292022B324B0CBFD3F83C359E
:101FC000D3F84C3503932F484FF4B071FFF7AEFFB1
:101FD0002C484FF4AE71FFF7A9FF94F8303013B1DD
:101FE00094F82E303BB1274B0022C3F80022A260A8
:101FF000264AC3F80823234AD2F8C434C2F8C434AA
:102000009A0736D501238DF8003094F830300BB99B
:1020100084F82F30D4E9003168469847AFE7194873
:102020004FF4A471FFF782FF237B83B9164F0FCFC4
:1020300001AE0FC63B68336094F83030002BDAD124
:10204000C5F80032A360114BC5F80833D3E74FF44D
:102050000073C5F8003240F20223A36003F1CE738F
:10206000C5F80833A368C5F804330123AB602B62BD
:1020700085E713F0040318BF0223C4E760110020B2
:1020800085A60000003000406C11002002029C0177
:102090000369C1688B429DBF8268D21802F1FF328A
:1020A00003F1FF3394BF501A581A70472DE9F843D3
:1020B000D0E902940546A9EB040840689045204405
:1020C0000F46144404D900F0B5FDEC60BDE8F88378
:1020D0004246A4EB090400F0ADFD6868224607EB18
:1020E0000801F0E72DE9F843C5680646894617461A
:1020F0004FF000083469B3687068A54228BFE4183F
:10210000013C621B5C1BBC4228BF3C46944228BF7A
:10211000144649462844224600F08CFDB368254405
:10212000AB4208BF00253F1BA044A144F560E1D1AC
:102130004046BDE8F883000010B5114C114AA26179
:102140000223C4E90433104BE361A2644FF400732B
:102150000E4A0F492362E26400231022E01DA362AD
:102160006362E362A3656365E365226500F038FF9F
:102170000849204600F034FF2023A37110BD00BFA2
:10218000DC130020E1A60000A4110020941100201F
:10219000EAA60000EEA60000F8B5184C182300FBD4
:1021A000033503FB00402544C46A012C0F46164644
:1021B0000FD0022C1AD0F4B92846FFF769FF8642E7
:1021C00005D8324639462846FFF770FF3446204688
:1021D000F8BD2846FFF75CFF8642344628BF044618
:1021E000224639462846FFF761FFF0E72846BDE85A
:1021F000F840FFF777BF0024E9E700BFDC130020B9
:1022000070B50B4B1B7804460D4616460BB9FFF70D
:1022100093FF0020FEF7C0FB324629462046FFF719
:10222000BBFF04460020FEF7C7FB204670BD00BF81
:10223000DC130020FFF780BF10B511461C461A467C
:102240000020FFF7DDFF204610BD00000C4B1B787F
:10225000062B10D10B4B1B681A070CD10A4B1868C0
:1022600000F0F003302B08D000F0E000A0F14003B4
:10227000584258417047002070470120704700BF06
:10228000E00F00F0E40F00F0E80F00F0094B1B78BE
:10229000062B0CD1084B1B681A0708D1074B18688E
:1022A00000F0F000A0F13003584258417047002080
:1022B000704700BFE00F00F0E40F00F0E80F00F0FF
:1022C00008B5FFF7C3FF28B17D4B7E4A1B68C3F3F7
:1022D00004231360FFF7DAFF10B17B4B7B4A1A60CF
:1022E000FFF7B4FF28B17A4B7A4A1B68C3F3423335
:1022F0001360FFF7CBFF20B1774AD36823F08073D8
:10230000D360FFF7A3FF40B14FF080430022C3F832
:102310000C21C3F81021C3F83825FFF7B7FF10B11F
:102320006E4B03221A60FFF7B1FF40B16C4B0522E0
:102330001A6001229A6700229A603F225A60694B14
:102340001B78062B50D1684B1B6819074CD1674B83
:102350001B6803F0F003502B46D14FF08052644BC2
:10236000D2F80414C3F82015D2F80814C3F82415C1
:10237000D2F80C14C3F82815D2F81014C3F82C1591
:10238000D2F81414C3F83015D2F81814C3F8341561
:10239000D2F81C14C3F84015D2F82014C3F8441521
:1023A000D2F82414C3F84815D2F82814C3F84C15F1
:1023B000D2F82C14C3F85015D2F83014C3F85415C1
:1023C000D2F83414C3F86015D2F83814C3F8641581
:1023D000D2F83C14C3F86815D2F84014C3F86C1551
:1023E000D2F84424C3F87025FFF730FF28B1414BE1
:1023F000414A1B6803F04F031360FFF727FF48B102
:102400004FF08043D3F80024D20744BF6FF001029D
:10241000C3F80024394B1B68062B08D1384B1B68C6
:10242000062B01BF374A136843F480631360364AB2
:10243000D2F8883043F47003C2F88830BFF34F8F6E
:10244000BFF36F8F4FF01023D3F80022002A03DB75
:10245000D3F80432002B2FDA2C4B0122C3F80425C9
:10246000D3F80024002AFBD04FF010221521C2F827
:102470000012D3F80024002AFBD04FF010231522BD
:10248000C3F80422214B1A46D3F800140029FBD0CC
:102490000021C3F80415D2F80034002BFBD0BFF3A1
:1024A0004F8F19491A4BCA6802F4E0621343CB609C
:1024B000BFF34F8F00BFFDE7164B174A1A6008BDE8
:1024C000240300104035014074C007400DF0ADBA40
:1024D000440200103C050040F0ED00E0A005004083
:1024E00010560040E00F00F0E40F00F0E80F00F09D
:1024F00000C0004058020010E40E004030010010FF
:10250000340100103C17004000ED00E000E0014005
:102510000400FA050C0000200090D003F0B5064638
:1025200087B00F46154672B6FFF79AF9FEF7C4FF5B
:102530000028FBD11E4B1F4CE41AE40844F20103AF
:1025400024049E4244F0010416D044F202039E4249
:1025500027D12B886A6818492046FFF722F9174BC4
:102560001B68DB0700D500BE2A463946304607B057
:10257000BDE8F040FEF704B8AA6805921046FFF7E0
:10258000A9FB296802970191696800910346059AA1
:102590000B492046FFF729F90A492046FFF7F4F8CE
:1025A000DDE709493A462046FFF7F2F8D7E700BFD2
:1025B000F8AA000028AB0000F5A60000F0ED00E04E
:1025C0000FA7000035A7000049A700000649074AE9
:1025D000074B9B1A03DD043BC858D050FBDCFFF7C8
:1025E0006FFEFDF755FE00006CAB00000000002000
:1025F000CC090020FEE7FEE7FEE7FEE7FEE7FEE788
:10260000FEE7FEE7FEE7FEE7002301461A4618460E
:1026100002F0EEB808B50021044602F01DF9044BA3
:102620001868C36B03B19847204606F0FFF900BF56
:1026300068A8000038B50A4C0A4D641BA4100AD0E3
:1026400004F18043013B05EB8305013C55F8043957
:102650009847002CF9D1BDE8384006F0FFBF00BF15
:10266000CC090020C809002070B50D4E0D4D761B19
:10267000B61006D00024013455F8043B9847A64212
:10268000F9D1094E094D761B06F0E2FFB61006D0CF
:102690000024013455F8043B9847A642F9D170BD97
:1026A000BC090020BC090020C8090020BC0900208A
:1026B000024B0146186800F00BB800BF1000002064
:1026C000024B0146186803F01BBB00BF100000203E
:1026D0002DE9F04F01F10B05162D83B0064623D8E6
:1026E000102900F2B98000F08FFB1025182302207A
:1026F000CD4F3B44A3F108025C68944200F0B980DE
:10270000636823F003032344D4E902515A68E96063
:1027100042F0010230468D605A6000F077FB0834C9
:10272000204603B0BDE8F08F35F0070500F1948036
:10273000A94200F2918000F067FBB5F5FC7FC0F084
:102740009D816B0A00F08F80042B00F27381AB092E
:1027500003F1390003F1380CC300B34F3B44A3F13C
:1027600008015C68A14206D10CE0002A80F22B81AE
:10277000E468A14206D0636823F003035A1B0F2AC2
:10278000F3DD60463C69DFF8A4C264457CD0636831
:1027900023F003035A1B0F2A00F37E81002AC7E9A6
:1027A00004CC80F26F81B3F5007F80F01A81DB08E2
:1027B000591C7A6857F83180C4F808804FF0010E30
:1027C0009B100EFA03F307EBC10E1343AEF10802A0
:1027D000E2607B6047F83140C8F80C408210012469
:1027E00094409C4256D81C4206D120F0030064005D
:1027F0001C4200F10400FAD007EBC009CE46804627
:10280000DEF80C309E4507D120E1002A80F22781B6
:10281000DB689E4500F01A81596821F003014A1BCC
:102820000F2AF2DDD3E9028E5C1945F001055D60E7
:1028300042F00105C8F80CE03046CEF80880C7E940
:102840000444C4E902CC65605A50009300F0DEFAFB
:10285000009B03F1080402E00C23336000242046AF
:1028600003B0BDE8F08F4FF4007340204FF03F0CF1
:1028700073E7DC68A34208BF02307FF441AF3C69D4
:10288000DFF8A8C1644582D17B688210012494409E
:102890009C42A8D9BC68636823F00308A84503D309
:1028A000A8EB05030F2B7EDCDFF88491D7F8082412
:1028B000D9F80030013204EB080A2B4400F03781CC
:1028C00003F580530F3323F47F6B2BF00F0B594626
:1028D000304600F0C1FA411C024600F0F780824504
:1028E00000F2F280D9F804105944C9F804100B46DC
:1028F00000F05381D7F8081401311BBFA2EB0A0A7C
:102900005344C7F80824C9F8043012F0070300F054
:102910001A81C3F108010A44C3F580519344083178
:10292000A1EB0B01C1F30B0A514630460193009213
:1029300000F092FA421CDDE9002300F05381831A73
:1029400003EB0A0BD9F80410BA604BF001035144B1
:10295000BC425360C9F8041000F02B81B8F10F0F8E
:1029600040F229816368A8F10C0020F0070003F011
:10297000010304EB000C03434FF0050E0F286360C6
:10298000CCE901EE00F2358153681446D9F82C20C9
:102990008A42D9F8302038BFC9F82C108A4238BF93
:1029A000C9F8301094E0621943F0010345F00105C5
:1029B00065603046BA60536000F028FA083420465B
:1029C00003B0BDE8F08F2344E1685A68A56842F07F
:1029D0000102E96030468D605A6000F017FA083451
:1029E0003DE75A0A042A69D9142A00F2BE8002F18E
:1029F0005C01C9005B3207EB010E7958AEF1080E9D
:102A00008E4500F097804A6822F003029A4202D96C
:102A100089688E45F7D1D1F80CE07B68C4E9021EC5
:102A2000CEF80840CC60D9E64004002048040020DD
:102A3000A4130020142B59D9542B00F29E802B0B89
:102A400003F16F0003F16E0CC30086E608F1010884
:102A500018F0030F0EF1080E7FF4D2AE51E01944C6
:102A60001C464A68DB6854F8085F42F001024A607D
:102A70003046EB609D6000F0C9F9F0E6E80805F12A
:102A8000080335E6234430465A6842F001025A6092
:102A9000083400F0BBF9E2E6611945F0010E42F09E
:102AA0000105C4F804E03046C7E90411C1E902CCCD
:102AB0004D60E25000F0AAF90834D0E69A0902F11C
:102AC0003901C900383296E7BC4260D0BC686368FF
:102AD00023F0030BAB45ABEB050302D30F2B3FF702
:102AE00062AF304600F092F90024B8E603F15C00D2
:102AF00003F15B0CC30030E659F808394B4540F050
:102B0000968010F0030F00F1FF30F5D17B6823EAC7
:102B100004037B6064009C423FF6BCAE1CB9B9E67E
:102B2000640008F104081C42FAD0404664E603F150
:102B3000100BCCE67B6892104FF0010808FA02F205
:102B400013437B606AE702EB0B014942C1F30B0AB6
:102B5000514630460193009200F07EF9431CDDE9B6
:102B600000237FF4ECAE9A46ECE6542A26D81A0BE2
:102B700002F16F01C9006E323DE7B3F5AA7F26D896
:102B8000EB0B03F1780003F1770CC300E5E5D9F80E
:102B900004305B44C9F80430ACE6CAF30B000028EB
:102BA0007FF4A8AE08EB0B03BC6843F0010363603D
:102BB000ECE61446EAE60123536092E7B2F5AA7FF9
:102BC00021D8DA0B02F17801C900773213E740F21D
:102BD0005452934221D8AB0C03F17D0003F17C0CDD
:102BE000C300BAE5083B9B44ABEB020B4FF0000A75
:102BF000A8E604F10801304603F082F8BC68D9F871
:102C000004106368C2E640F254518A420BD89A0C11
:102C100002F17D01C9007C32EDE64FF47E737F2026
:102C20004FF07E0C99E54FF47E717E22E3E67B68DF
:102C300070E700BF844641EA000313F003036DD13F
:102C4000403A41D351F8043B40F8043B51F8043B6F
:102C500040F8043B51F8043B40F8043B51F8043B76
:102C600040F8043B51F8043B40F8043B51F8043B66
:102C700040F8043B51F8043B40F8043B51F8043B56
:102C800040F8043B51F8043B40F8043B51F8043B46
:102C900040F8043B51F8043B40F8043B51F8043B36
:102CA00040F8043B51F8043B40F8043B51F8043B26
:102CB00040F8043B51F8043B40F8043B51F8043B16
:102CC00040F8043B403ABDD2303211D351F8043BB6
:102CD00040F8043B51F8043B40F8043B51F8043BF6
:102CE00040F8043B51F8043B40F8043B103AEDD265
:102CF0000C3205D351F8043B40F8043B043AF9D2B6
:102D0000043208D0D2071CBF11F8013B00F8013B88
:102D100001D30B8803806046704700BF082A13D395
:102D20008B078DD010F003038AD0C3F10403D21AAD
:102D3000DB071CBF11F8013B00F8013B80D331F8E1
:102D4000023B20F8023B7BE7043AD9D3013A11F861
:102D5000013B00F8013BF9D20B7803704B784370CC
:102D60008B78837060467047F0B4860746D0541E57
:102D7000002A3CD0CAB2034602E014F1FF3436D335
:102D800003F8012B9D07F8D1032C29D9CDB245EAD0
:102D900005250F2C45EA054533D9A4F1100636095F
:102DA00003F1200707EB061703F1100242E904556F
:102DB00042E902551032BA42F8D1721C14F00C0FDD
:102DC00003EB021204F00F0613D0331F23F00303AA
:102DD0000433134442F8045B9342FBD106F003042E
:102DE0002CB1C9B21C4403F8011B9C42FBD1F0BCBE
:102DF000704734461346002CF3D1F8E714460346D7
:102E0000C2E71A462646E0E7704700BF704700BF9A
:102E10000EB400B582B003AB816853F8042B019364
:102E200000F0BEF902B05DF804EB03B0704700BFDC
:102E30000FB400B5074983B004AB086853F8042BFE
:102E40008168019300F0ACF903B05DF804EB04B0C5
:102E5000704700BF1000002038B5074C002305461E
:102E60000846236005F0D4FD431C00D038BD23681C
:102E7000002BFBD02B6038BD5414002000290CBF60
:102E8000022200224FF4806300F000B82DE9F043E5
:102E9000524C256883B004460F4690461E4615B135
:102EA000AB6B002B65D0B8F1020F06D0B8F1010F63
:102EB00000F29180002EC0F28E802146284602F05A
:102EC000A9FD216B41B104F14003994202D028468B
:102ED00002F016FF00232363B4F90C300022A26134
:102EE00062601A064DD423F44A6323F00303B8F159
:102EF000020FA3814CD001AB6A462146284603F05D
:102F000053F8A3891843A08116B317B3AB6B63B30F
:102F1000009BB4F90C002760B3421CBF40F4006072
:102F2000A081B8F1010F08BF40F0010083B208BFD3
:102F3000A08113F00800C4E904761ED013F001004C
:102F400035D000207642A661A06003B0BDE8F083D2
:102F5000009E3046FFF7ACFB074660B3A38943F001
:102F60008003A381AB6B002BD2D1284602F058FE20
:102F7000CEE7284602F054FE95E7A06003B0BDE816
:102F8000F0832169284602F0BBFEB4F90C30AAE7B1
:102F9000002004F1430243F0020300250121A38134
:102FA000A5602260C4E9042103B0BDE8F083A660F7
:102FB00003B0BDE8F083DDF80090B14506D0484687
:102FC000FFF776FB074608B14E46C7E7B4F90C3069
:102FD0004FF0FF30DDE74FF0FF30CFE7100000206B
:102FE00080EA0102844612F0030F4FD111F0030F63
:102FF00032D14DF8044D11F0040F51F8043B0BD0C1
:10300000A3F101329A4312F0803F04BF4CF8043B15
:1030100051F8043B16D100BF51F8044BA3F1013223
:103020009A4312F0803FA4F101320BD14CF8043BDB
:10303000A24312F0803F04BF51F8043B4CF8044B0C
:10304000EAD023460CF8013B13F0FF0F4FEA33237D
:10305000F8D15DF8044B704711F0010F06D011F85C
:10306000012B0CF8012B002A08BF704711F0020F4A
:10307000BFD031F8022B12F0FF0F16BF2CF8022B35
:103080008CF8002012F47F4FB3D1704711F8012B58
:103090000CF8012B002AF9D1704700BF0000000096
:1030A0000000000000000000000000000000000020
:1030B0000000000000000000000000000000000010
:1030C00090F800F06DE9024520F007016FF0000C68
:1030D00010F0070491F820F040F049804FF0000410
:1030E0006FF00700D1E9002391F840F000F10800EB
:1030F00082FA4CF2A4FA8CF283FA4CF3A2FA8CF323
:103100004BBBD1E9022382FA4CF200F10800A4FA89
:103110008CF283FA4CF3A2FA8CF3E3B9D1E90423DD
:1031200082FA4CF200F10800A4FA8CF283FA4CF314
:10313000A2FA8CF37BB9D1E9062301F1200182FACE
:103140004CF200F10800A4FA8CF283FA4CF3A2FAD4
:103150008CF3002BC6D0002A04BF04301A4612BAE2
:10316000B2FA82F2FDE8024500EBD2007047D1E9E5
:10317000002304F00305C4F100004FEAC50514F074
:10318000040F91F840F00CFA05F562EA05021CBF45
:1031900063EA050362464FF00004A9E7000000005F
:1031A0002DE9F04FBFB01C460491914605460890AA
:1031B00002F0F2FE036811931846FFF781FF0994AD
:1031C0000F901DB1AB6B002B00F067830499B1F930
:1031D0000C2093B29E04084607D4496E42F4005373
:1031E00021F40051838141669BB21D0740F1D080DC
:1031F000049A1269002A00F0CB8003F01A030A2B0C
:1032000000F0D4809FED9A7B00238DED0C7B0E9314
:10321000CDE922331093129305932EAB21939A4656
:1032200099F80030002B00F0DD80252B00F0BE86E1
:103230004D4603E0252B00F0C78025466B786C1CBB
:10324000002BF7D1B4EB090600F0CC80DDE9223287
:1032500001333244072BCAF80090CAF80460CDE964
:10326000223200F3B6800AF1080A059A6B783244DC
:103270000592002B00F0B680002367788DF8673048
:103280001A46194606939B4604F101094FF0FF3692
:1032900009F10109A7F12003582B00F20283DFE8AE
:1032A00013F0DA0200030003E2020003000300034C
:1032B0000003000300032902BC020003B702C1029D
:1032C0000003C000B100B100B100B100B100B10015
:1032D000B100B100B10000030003000300030003CC
:1032E000000300030003000300039D0251020003DA
:1032F000510200030003000300034C02000300031B
:1033000068000003000300030003000359000003EA
:103310000003340200030003000300030003000362
:103320000003000300030003AE01740151025102C7
:1033300051026F01740100030003620100034C019C
:103340006A001C0117010003ED0000035B0000038D
:103350000003C5004BF0100B1BF0200F00F0928211
:10336000099C073424F00703F3E80245099301237D
:10337000C3E04BF0100B1BF0200300F07982099C96
:10338000073424F00703F3E8024509930023B4E06F
:103390000499089801F0C4F9002841F01381049BB6
:1033A0009B8903F01A030A2B7FF42CAF049BB3F91B
:1033B0000E30002BFFF626AF23464A4604990898A4
:1033C00001F078F9059019E0B4EB09063FF454AF29
:1033D0003CE721AA0499089803F00AFC48B90DF1CA
:1033E000B80A42E7239B23B10898049921AA03F065
:1033F000FFFB049B9B895A0601F1E48005983FB0CE
:10340000BDE8F08FA7F13003002019F8017B00EB35
:10341000800003EB4000A7F13003092BF5D906909B
:1034200038E74BF0800B99F8007031E7002A41F043
:10343000B180114B10931BF0200F00F06F81099C9D
:10344000073424F00703F3E8024509931BF0010F4A
:1034500000F0388254EA050300F0348230238DF8FE
:1034600068308DF869704BF0020B022345E000BF15
:103470000000000000000000B0A80000099C54F803
:10348000043B0A9300258DF86750002B00F07F86DF
:10349000711C00F05387324629460A9802F000FE5C
:1034A000002801F059800A9BC31A07932E4623EA8D
:1034B000E3739DF867800994CDF808B003930B96E9
:1034C000B8F1000F00F0AD80039B01330393A8E037
:1034D0004BF0200B99F80070DAE6099C54F8043B95
:1034E000099447F630021C46B74B1093ADF868209C
:1034F0004BF0020B0025022378274FF000088DF8CF
:103500006780721C00F0E2812BF08002029254EA84
:10351000050240F0D981002E40F01284002B40F0CB
:10352000DC841BF00103079300F0498530238DF8FC
:10353000B7300DF1B7030A9359E0002A41F0328009
:10354000099A1BF0200F52F8043B099240F03B858A
:103550001BF0100F40F054861BF0400F00F0508617
:10356000059A1A805CE699F800706C2F03BF99F8F1
:1035700001704BF0200B09F101094BF0100B87E6AD
:103580004BF0400B99F8007082E6002A41F012805F
:103590001BF0200F00F02B81099C073424F0070357
:1035A0001946F1E80223099114461D46002A73F1D9
:1035B0000003C0F2F184731C9DF8678008D02BF0E3
:1035C0008003029354EA050300F08484DDF808B018
:1035D000002D08BF0A2C80F0548401233034079357
:1035E0000DF1B7038DF8B740CDF808B00A93079BEB
:1035F000B342B8BF3346039300230B9360E7099CA3
:10360000002354F8042B8DF890208DF867300122A8
:1036100024AB0392099407920A930026CDF808B0D0
:103620000B96029B13F0020302D0039A023203921C
:10363000029A239C12F0840B05D1069A0399551A1D
:10364000002D00F3E8829DF8672072B1229A0132C2
:1036500001340DF167000121072ACDE92224CAE9CE
:10366000000100F31A830AF1080A6BB1229B0133AF
:1036700002341AA90222072BCDE92234CAE900122A
:1036800000F319830AF1080ABBF1800F00F0A8814A
:10369000079BF61A002E00F3EC81029BDB0500F17C
:1036A0004281229B0A9ACAF80020079ACAF804208D
:1036B00001331444072B2394229300F34E820AF122
:1036C000080A029B590705D5069B039A9D1A002DEF
:1036D00000F3FD82DDE9053203998A42ACBF9B18F5
:1036E0005B180593002C40F0FE81002322930DF11E
:1036F000B80A95E5099B99F8007053F8040B0690F9
:103700000028C0F216850993C2E5002A40F05687CA
:103710002E4B10931BF0200F7FF491AE099B1BF0F2
:10372000100F53F8044B099340F02B841BF0400F0B
:1037300000F02784A4B2002588E64BF0080B99F826
:103740000070A5E5002A40F02987099C073424F081
:103750000703B3EC027B55EC174B099325F00043AC
:1037600015938DED147ADDE914014FF0FF32184BFB
:103770008DED0C7B05F0B2FD002840F02B844FF05E
:10378000FF32134BDDE9140105F08AFD002840F0FB
:103790002184002200232046294605F077FD0028D9
:1037A00040F03E869DF867800A4A0B4B03210026B5
:1037B0002BF08000472FC8BF1A46039102900A924F
:1037C00007910B967CE600BFB0A800009CA8000003
:1037D000FFFFEF7F8CA8000090A80000002A40F0B7
:1037E000E5864BF0100B1BF0200F7FF4D5AE099B44
:1037F0001BF0100F53F8044B099340F0C5831BF0E6
:10380000400F00F0C18324B2E51722462B46CDE6D7
:1038100099F800704BF0040B3AE599F8007001221A
:103820002B2135E5484610F8017B2A2F00F023872D
:10383000A7F13003092B81464FF000063FF62AAD71
:1038400019F8017B06EB860603EB4606A7F1300369
:10385000092BF5D91EE599F8007000297FF418AD01
:103860000122202114E54BF0010B99F800700FE5BF
:10387000099A52F8044B09921BF0100200F051848F
:1038800000253AE6099B1BF0100F53F8044B0993EF
:1038900000F03F84002501232FE6089802F0C0F9CC
:1038A00094E4002A40F0D685002F3FF49BAD00231E
:1038B00001228DF8673024AB03928DF89070079247
:1038C0000A93AAE6022318E6DDF808B0012B3FF4BC
:1038D0007FAE022B00F03C822EA900E01146E208E8
:1038E00042EA4572E80804F00703054614463033FF
:1038F00054EA050001F8013C01F1FF32EED11BF062
:10390000010F0A9200F0DF82302B00F04B840A9AFC
:10391000CDF808B03023023902F8013C2EAB5B1A17
:1039200007930A9163E6652F40F323810022002369
:10393000DDE90C0105F0A0FC002800F02282229BAA
:10394000BC4ACAF80020013301340122072BCDE91B
:103950002234CAF8042000F39D840AF1080A1B9B54
:103960000E9A239C934280F22483229B119ACAF8D8
:1039700000200F9ACAF8042001331444072BCDE924
:10398000223400F3F7830AF1080A0E9B5D1E002D16
:103990007FF797AE102D229ADFF89CB240F3708427
:1039A0001026089FDDF8108005E00AF1080A103D96
:1039B000102D40F3658401321034072ACDE922240A
:1039C000CAE900B6F1DD21AA4146384603F010F9F4
:1039D00000287FF40EADDDE922240DF1B80AE6E7F8
:1039E000069B039A9D1A002D7FF752AE102D229A46
:1039F000DFF844B22DDD584653462146CA46BB4641
:103A0000B1464FF01008089C049E074604E0103DA4
:103A1000102D03F1080315DD01321031072ACDE91D
:103A20002221C3E90078F2DD21AA3146204603F0C5
:103A3000DFF800287FF4DDAC103D102DDDE92221F8
:103A40002EABE9DC4E46D1469A463B460C465F46D5
:103A50009B4601322C44072ACDE92224CAE900B54D
:103A600000F32484079BF61A002E0AF1080A7FF758
:103A700014AE102E229ADFF8C0B128DD5946234635
:103A8000BB461025DDF82080049C0F4604E0103E64
:103A9000102E0AF1080A16DD01321033072ACDE98B
:103AA0002223CAE90075F2DD21AA2146404603F02F
:103AB0009FF800287FF49DAC103E102EDDE92223F4
:103AC0000DF1B80AE8DC1C463B465F469B460132D6
:103AD0003444072ACDE92224CAE900B600F344821F
:103AE0000AF1080AD9E521AA0499089803F080F898
:103AF00000283FF4FAAD7CE421AA0499089803F069
:103B000077F800287FF475AC1B9B239C0DF1B80A55
:103B1000002B40F0D883029B0E9A03F0010313435D
:103B20003FF4CFAD229A119BCAF800300F9BCAF820
:103B3000043001321C44072A2394229200F39E840D
:103B40000AF1080A0E9B0A9901321C44072ACDE9A2
:103B50002224CAE900137FF7B2AD21AA049908987C
:103B600003F046F800287FF444AC239C0DF1B80A1A
:103B7000A7E50E9A229B012A04F1010403F1010535
:103B80000AF1080640F3AF8101230A9ACAF800201F
:103B9000072DCDE92254CAF8043000F345830F9B6A
:103BA000119A01351C44072DCDE92254C6E90023A2
:103BB00000F32E8308366B1C1F46B8460E9F0793F2
:103BC00000220023DDE90C0106F1080A013F05F09F
:103BD00053FB002840F09B810A9B776001333C44F3
:103BE000B8F1070F33602394CDF8888000F3B282D8
:103BF00006F1100305F1020856469A46129A7260C1
:103C000014441DABB8F1070F2394CDF888803360BE
:103C10007FF757ADA1E7102D229A31DD514620469E
:103C2000CA464FF01008B14613932E46089C049DD7
:103C300009E000BFCCA800007CA80000103E102EB8
:103C400001F1080116DD0132C54B1030072ACDE91C
:103C50002220C1E90038F1DD21AA2946204602F0E0
:103C6000C7FF00287FF4C5AB103E102EDDE92220EF
:103C70002EA9E8DC139B354604464E46D1468A46BB
:103C80000132B7492C44072ACDE92224CAE900159C
:103C900000F3D6820AF1080AD5E421AA049908980B
:103CA000139302F0A5FF00287FF4A3AB239C139B82
:103CB0000DF1B80AD9E421AA0499089802F098FFF6
:103CC00000287FF496AB239C0DF1B80ADCE4102D9C
:103CD000229B21DD1026089FDDF8108004E0103DB6
:103CE000102D0AF1080A17DD01339D4A1034072B05
:103CF000CDE92234CAE90026F1DD21AA4146384641
:103D000002F076FF00287FF474AB103D102DDDE942
:103D100022340DF1B80AE7DC0133914A2C44072B19
:103D2000CDE92234CAE900257FF7D4AC21AA049951
:103D3000089802F05DFF00287FF45BAB239CC9E488
:103D4000012B00F0B583022BDDF808B07FF4C4AD81
:103D5000DDF840C02EAA230904F00F0043EA0573E2
:103D600029091C460D461CF8003002F8013D54EAB2
:103D70000503F0D12EAB9B1A0A92CDF808B0079339
:103D800035E41B9B002B40F36A820E9B0B9A9342F7
:103D9000A8BF1346002B1D460EDD229B0A9ACAF8C7
:103DA000002001332C44072B2394CAF8045022939B
:103DB00000F3B5830AF1080A0B9B002DA8BF5B1B1B
:103DC000002B1D4600F3F6811B9A0E9B9A4280F24F
:103DD000B581229B1199CAF800100F99CAF80410F6
:103DE00001330C44072B2394229300F326830AF11A
:103DF000080A0B990E9B9142A3EB020380F2048206
:103E00001D46002D10DD229ACAF80450DDE90A1083
:103E1000013201442C44072ACAF80010CDE92224BB
:103E200000F38B830AF1080A002DACBF5D1B1D4611
:103E3000002D7FF746AC102D229ADFF828B140F311
:103E40001F821026089FDDF8108005E00AF1080A9D
:103E5000103D102D40F3148201321034072ACDE9B1
:103E60002224CAE900B6F1DD21AA4146384602F013
:103E7000BFFE00287FF4BDAADDE922240DF1B80AB7
:103E8000E6E72EABCDF80890C146B0461E4601E0ED
:103E900004460D460A2200232046294605F05CFA16
:103EA000303206F8012D00230A222046294605F06B
:103EB00053FA002D08BF0A2CEAD232460A9646462B
:103EC000C846DDF80890CDF808B02EAB9B1A0793D2
:103ED000FFF78DBB002E40F0EB8200262EAB07963D
:103EE0000A93FFF784BB029AD0073FF54DAE01223B
:103EF0000A99CAF80010072DCDE92254CAF8042007
:103F000000F3288103F102080AF1100A76E6002F77
:103F10007FF774AE102FDFF84CB040F3AA8323462E
:103F20004FF01008DDF820A0049C079D05E008363E
:103F3000103F102F40F30A8201351033072DCDE9D1
:103F40002253C6E900B8F2DD21AA2146504602F00C
:103F50004FFE00287FF44DAADDE922532EAEE7E79D
:103F60006CA800007CA8000021AA0499089802F01F
:103F70003FFE00287FF43DAA239C0DF1B80AFFF70D
:103F80008CBB0025FFF762BAE51722462B46002AB4
:103F900073F10003BFF60FAB4FF02D08644265EBE1
:103FA00045058DF867800123FFF7ABBA4C46FFF754
:103FB00063B9029BDE073FF5D8ACFFF782BB2EAB9F
:103FC0000A93FFF714BB059A1046D117C3E9000105
:103FD000FFF726B9DDE90C0102460B4605F07EF934
:103FE000002840F02C83741C27F0200500F0A382E9
:103FF000472D00F03F82DDE90C014BF4807200296F
:104000000292C0F213829DED0C7B8DED167B002396
:104010001393662F00F0B881462F00F0B581452D2F
:1040200000F04A821FAA1CABCDE9003202211BAB73
:1040300032469DED160B089800F0F8FC672F0A90A9
:10404000344640F047821BF0010F40F046821B9A35
:104050001F9B0B920A9A472DA3EB02030E9306D1E6
:104060000B9BD81C02DB9E4280F24B82023F0B9BD3
:104070008DF874705A1E002A1B92B6BFC3F101025C
:104080002B232D23092A8DF8753040F3B8820DF1CA
:1040900083042046B84D01E008461A4685FB0231EC
:1040A000D317C3EBA10303EB8301A2EB4101303132
:1040B000632A00F8011C00F1FF31EDDC3033821E71
:1040C000DBB2944201F8013C40F2E0820DF176024D
:1040D00001E011F8013B02F8013B8C42F9D10DF1EE
:1040E00085030DF176021B1A13441DAA9B1A129325
:1040F0000E9A129B012A1344079340F39282079B66
:104100000F9A1344079323EAE373039300230B935B
:1041100072E11BF0400F18BFA4B200250123FFF786
:10412000ECB91BF040031CBF1346A4B20025FFF7F7
:10413000E4B9404206900993FFF76CBB029BDD0790
:104140003FF547AE0B990E9B8A42A3EB02035BDD62
:104150001D4669E621AA0499089802F049FD002845
:104160007FF447A9DDE922340DF1C00A03F101080B
:104170002EAE43E521AA0499089802F039FD0028E3
:104180007FF437A9239C0DF1B80AFFF7FEBB062E7A
:10419000334628BF062307930393784B09940A9369
:1041A000FFF73BBA0A9ACDF808B02EAB9B1A0793DB
:1041B000FFF71DBA102B229ADFF8C8B140F3258112
:1041C0001026089FDDF8108005E00AF1080A103D6E
:1041D000102D40F31A8101321034072ACDE9222430
:1041E000CAE900B6F1DD21AA4146384602F000FDD9
:1041F00000287FF4FEA8DDE922240DF1B80AE6E7E5
:10420000059A1A60FFF70CB80E9A0B99551AF8E543
:1042100021AA0499089802F0EBFC00287FF4E9A891
:10422000DDE922542EAEC6E421AA0499089802F0D2
:10423000DFFC00287FF4DDA8DDE922542EAEAEE4D9
:1042400021AA04990898139302F0D2FC00287FF465
:10425000D0A8239C139B0DF1B80AFFF7F4B9229A5A
:104260004749CAF80010013201340121072ACDE97B
:104270002224CAF804103FF73FAC0AF1080A47E4C9
:1042800001322C44072ACDE92224CAE900B57FF780
:1042900016AA62E421AA0499089802F0A9FC002851
:1042A0007FF4A7A80DF1B80AFFF759BB21AA04991A
:1042B000089802F09DFC00287FF49BA8239C0DF138
:1042C000B80AFFF7E5B9229A1199CAF800100F99B8
:1042D000CAF8041001320C44072A2394229200F3F6
:1042E000CD800AF1080A002BBFF62CAC5D421033DA
:1042F000DFF890B080F26C815F461026DDF8108008
:10430000DDF820B005E00AF1080A103D102D40F359
:104310005E8101321034072ACDE92224CAE90076F1
:10432000F1DD21AA4146584602F062FC00287FF4E4
:1043300060A8DDE922240DF1B80AE6E70A98FEF745
:10434000BFFE2E4603460790FFF7B1B81C4605F1A5
:10435000010806F108023C44B8F1070F2394C6E9AE
:1043600000B7CDF888803FF7F5AE08F1010802F1FB
:10437000080A164642E400BF67666666C4A80000E5
:10438000CCA800007CA800001FAA1CABCDE900321D
:1043900003211BAB32469DED160B089800F046FB3F
:1043A0000A900A9B1B78302B00EB060456D01B9B0F
:1043B0001C4400220023DDE9160104F05DFF002803
:1043C00000F08E8023460A9A9B1A0E93472D1B9B62
:1043D0000B933FF445AE662F7FF449AE0B9A0BF07A
:1043E0000103002A43EA060340F33681002B40F024
:1043F00021810B9B03930793139B002B7CD02D23D0
:104400008DF867300026FFF75FB801322C44072A89
:10441000CDE92224CAE900B53EDC0AF1080AD3E45A
:104420004FF02D088DF86780FFF7BEB901F100430A
:1044300017932D2316901393EBE521AA049908985E
:1044400002F0D6FB00287EF4D4AF1B9A239C0DF11A
:10445000B80ACEE48DF86710FFF726BA00220023D1
:10446000DDE9160104F008FF0028A0D1C6F1010320
:104470001B939DE7002E08BF0126BCE521AA0499E5
:10448000089802F0B5FB00287EF4B3AF1B9BDDE972
:1044900022240DF1B80A26E721AA0499089802F00F
:1044A000A7FB00287EF4A5AF239C0DF1B80A8BE48E
:1044B000DDF808B0FFF791B81FA91CAB741CCDE95B
:1044C000003122461BAB02219DED160B089800F02F
:1044D000ADFA0A90472F3FF4B6AD0A9B1C4468E73B
:1044E0001F9BA342BFF46FAF30215A1C1F9219705B
:1044F0001F9B9C42F9D866E79DF86780139EFEF7E4
:10450000DFBF0E9B19460B9B994230DC1BF0010F5D
:104510007ED123EAE3720392079367276CE721AA0F
:104520000499089802F064FB00287EF462AF239C93
:104530000DF1B80A40E406265DE521AA0499089821
:1045400002F056FB00287EF454AF1B9B0E9A239C6E
:10455000D31A0DF1B80A67E4039607960994064644
:10456000CDF808B00B909DF86780FEF7A9BFDDE994
:104570000E3213440B9A0793002A06DC0B9B079A12
:10458000C3F101031A441346079223EAE37303932A
:10459000672731E78DF86710FEF74BBF8DF867107E
:1045A000FFF7D3B88DF86710FEF7CABF8DF8671014
:1045B000FFF717B98DF86710FEF7EABF8DF867109F
:1045C000FFF7A6B84FF0FF330593FEF717BFBB46C2
:1045D00001322C44072ACDE92224CAE900B57FF72D
:1045E000AFAA21AA0499089802F002FB00287EF4E1
:1045F00000AFDDE922240DF1B80AFFF7A3BA30239A
:1046000030328DF8763004238DF8772012936FE5E1
:104610000B9B0F9A1344079323EAE37303936727D3
:10462000EAE61BF001020B927FF469AD23EAE37323
:104630000393E1E60F9BD31833440793F6E70D9BF2
:10464000144A002BB6BF4FF02D089DF867808DF8F7
:104650006780114BFFF7AAB81BB901230393079397
:10466000CAE60F9B01333344079323EAE3730393B2
:10467000C2E652466FE6099B99F8017053F8046B45
:104680000993814646EAE676FEF702BE02231293BC
:104690002EE500BF94A8000098A8000010B4044CB8
:1046A00013460A46014620685DF8044BFEF778BDC4
:1046B00010000020F0B50C46ADF26C4D8989666E95
:1046C000E589199621F00201666AADF80E500025C1
:1046D000E769ADF80C10099606951AAE4FF480659F
:1046E0006946009604960295059507970646FEF7DB
:1046F00057FD051E07DB3046694601F08BF900289F
:1047000018BF4FF0FF35BDF80C305B0603D5A38909
:1047100043F04003A38128460DF26C4DF0BD00BF6D
:1047200038B5324B1B6805460C460BB19A6B12B379
:10473000B4F90C2093B2180725D5206900282DD094
:1047400013F0010207D0636900225B42A361A260FB
:1047500038B1002038BD990758BF6269A2600028AF
:10476000F7D1B4F90C301A06F4D543F04003A38115
:104770004FF0FF3038BD184601F052FAB4F90C2062
:1047800093B21807D9D4D90628D5580712D420696E
:1047900042F00803A3819BB20028D1D103F4207218
:1047A000B2F5007FCCD02846214601F02BFCA3892E
:1047B0002069C5E7216B51B104F14003994204D04F
:1047C000284601F09DFAB4F90C200023236300234E
:1047D0002069636022F024022060D9E742F04002A1
:1047E00009232B604FF0FF30A28138BD100000205C
:1047F000F0B4184C2568D5F8484114B365681F2DEE
:1048000024DC38B9AB1C0135656044F82310002066
:10481000F0BC704704EB85060127C6F8882007FA2C
:1048200005F2D4F88871022847EA0207C4F88871B3
:10483000C6F80831E6D1D4F88C311A43C4F88C217B
:10484000E0E705F5A674C5F84841D7E74FF0FF301B
:10485000DEE700BF68A800002DE9F04F244B83B0CD
:10486000D3F800B001908A464FF00008DBF84861A9
:1048700096B17468651E0FD4013406EB84040127D9
:10488000BAF1000F0BD0D4F80031534507D0013DE9
:104890006B1CA4F10404F3D103B0BDE8F08F73687E
:1048A0002268013BAB420CBF7560C4F80080002A4F
:1048B000EDD0D6F88811D6F8049007FA05FC1CEA6A
:1048C000010F08D1904772684A45CFD1DBF84831D3
:1048D000B342DCD0CAE7D6F88C31D4F880101CEA99
:1048E000030F02D101989047EDE708469047EAE7A9
:1048F00068A80000024B13B10248FDF785BE70475F
:1049000000000000352600002DE9F04F03690F6913
:10491000BB4283B0C0F28680013F01F1140600F172
:10492000140A56F827305AF82720BC0001330094A7
:1049300006EB04099A425444B2FBF3F801943AD3CB
:1049400000252A46B646D4465EF8044BDCF8003013
:104950001FFA84FB08FB0B554FEA154B240C08FB90
:1049600004B4ADB2551BA2B2C2EB134215FA83F3E5
:1049700002EB23429BB243EA0243F1454FEA14455E
:104980004CF8043B4FEA2242DED2009B5AF8033037
:104990008BB9019A131F9A450CD252F8043C4BB9BB
:1049A000A2F1080302E01A68043B1AB99A4507F11C
:1049B000FF37F8D30761044601F058FE00282DDBCD
:1049C00008F101085046002356F8041B05688AB216
:1049D0009A1A0B0C12FA85F2C3EB154303EB224330
:1049E00092B242EA0342B14540F8042B4FEA234316
:1049F000EAD25AF827200AEB87037AB91A1F9245A0
:104A00000BD253F8042C42B9083B02E01A68043B6D
:104A10001AB99A4507F1FF37F8D32761404603B02A
:104A2000BDE8F08F002003B0BDE8F08F2DE9F04F16
:104A300057EC106B97B0056C209C039182460A924C
:104A40000793CDE9006755B1426C6A60012393403A
:104A5000AB60294601F09AFB0023CAF840303E1EA5
:104A6000B4BF012300232360754BBCBF26F0004672
:104A70000196B34300F0AE809DED007B0022002341
:104A800051EC170B8DED047B04F0F6FB054678B175
:104A9000079A01231360219B002B00F01083694BC0
:104AA000219A1360013B0293029817B0BDE8F08F82
:104AB000DDE9047814AA15A948EC107B504601F0F2
:104AC00009FF340D834640F09B80DDE914542C44EB
:104AD00004F23243202B40F3BA83C3F140039E40DB
:104AE000009B04F2124023FA00F0304304F0E2F895
:104AF000A1F1F87301210246013C0E9110461946BE
:104B00000022514B03F098FF47A3D3E9002304F0A0
:104B10004BF947A3D3E9002303F090FF0646204654
:104B20000F4604F0D7F844A3D3E9002304F03CF97E
:104B300002460B463046394603F080FF06460F46D4
:104B400004F0E2FB0022814600233046394604F09F
:104B50009DFB002840F0A6822C1BB9F1160F04F132
:104B6000FF3800F29382394B03EBC903D3E90023EA
:104B7000DDE9040104F08AFB00286DD00023B8F1C0
:104B8000000F09F1FF390D93C0F2868200230993CB
:104B9000B9F1000F66DA099BCDF81890A3EB090371
:104BA0000993C9F100030C93039B092B4FF00009F3
:104BB00060D8052B40F34983043B03930024039BF7
:104BC000023B032B00F25186DFE813F06804650412
:104BD0003E045804079A42F20F731360009BC6F319
:104BE0001306334318D1219B002B00F03586184B58
:104BF00002930833219A0298136017B0BDE8F08F32
:104C0000C8F3130141F07F530E953A46A4F2FF34E6
:104C100043F44013149D71E7219B002B40F0038463
:104C20000C4B029340E700BF61436F63A787D23FFD
:104C3000B3C8608B288AC63FFB799F501344D33F8B
:104C40000000F07FCDA800000000F83F38A9000068
:104C5000D4A80000D0A80000B8F1000FC0F2BE84B4
:104C60000D90099000230C93039BCDF81890092B0D
:104C7000C8449ED9002301240393CDE90A344FF0A0
:104C8000FF3308930021089BCAF844100F93504645
:104C900001F056FA0290002800F0F085029BCAF855
:104CA0004030089B0E2B00F20A81002C00F0078197
:104CB0000699002940F36884B14B01F00F0203EB21
:104CC000C20393ED007B0C11E2068DED107B40F1E9
:104CD0000884AC4BDDE90401D3E9082304F08EF924
:104CE000CDE9000104F00F0403267CB1DDE91001D9
:104CF000A44DE30704D5D5E9002304F055F80136A7
:104D0000641005F10805F4D1CDE91001DDE90001D9
:104D1000DDE9102304F072F9CDE900010D9B53B1D8
:104D2000DDE900450022984B2046294604F0AEFA02
:104D3000002840F02785304603F0CCFFDDE9002352
:104D400004F032F8914B002203F078FE089B0446F1
:104D5000A1F15075002B00F0FB83069B1293089B7A
:104D60001093DDE900673946304604F0CDFA009033
:104D700003F0B0FF02460B463046394603F05CFEB6
:104D80007F4B009A0F461099064603EBC1030B9820
:104D900002993032CDE90045D5B24C1C53E90223CB
:104DA000002800F097840020794904F027F9DDE914
:104DB000002303F041FE029B32461D703B46CDE9C5
:104DC000000104F081FA002840F0D48432463B46CA
:104DD00000206D4903F030FE02460B46DDE900017C
:104DE00004F072FA002840F03285109B012B62D04B
:104DF000029ACDF840901344CDF84C80DDE900894B
:104E0000CDF800B0D3469A460EE032463B4600202D
:104E10005D4903F011FE42464B4604F037FA002884
:104E200040F0EE8454453FD0404649460022594B5D
:104E300003F0BAFF0022574B804689463046394678
:104E400003F0B2FF0F46064604F05EFA054603F093
:104E500041FF02460B463046394603F0EDFD303542
:104E6000EDB204F8015B42464B4606460F4604F09D
:104E70000DFA0028C9D0129BDA460133DDF800B0E4
:104E800006935946504601F081F900232370079B91
:104E90001A46069B1360219B002B3FF405AE029837
:104EA0001C6017B0BDE8F08FDA46DDF84090DDF801
:104EB0004C80DDF800B0DDE90434CDE90034159B09
:104EC000002BC0F2C680069A0E2A00F3C2802C4B3B
:104ED00003EBC203D3E900890A9B002B17DA089F72
:104EE000002F14DC40F04D8300222B4B40464946F6
:104EF00003F05AFFDDE9002304F0DCF9002800F09C
:104F0000C483089F3D460A9B029CDB435FE2DDE9C8
:104F1000004542464B462046294604F06FF804F00F
:104F2000F3F90646009003F0D5FE42464B4603F0E7
:104F30003BFF02460B4620462946029C354630354B
:104F400003F07AFD069E04F8015B089D0136012DF1
:104F500002460B46069652D000220E4B03F024FF69
:104F60000022002306460F4604F086F9002888D167
:104F7000CDF800B00125DDF820B0CDF80CA01AE086
:104F800038A9000028AA00000000F03F00001C40E3
:104F90000000E03F00002440000014400022B94B14
:104FA00003F002FF0022002306460F4604F064F9D6
:104FB000002840F0608342464B463046394604F0B4
:104FC0001DF804F0A1F9824603F084FE42464B46E8
:104FD00003F0EAFE02460B463046394603F02CFD4C
:104FE00001350AF13006AB4502460B4604F8016B69
:104FF000D4D1DDF800B0CDF800A0DDF80CA010464B
:10500000194603F01BFD42464B4606460F4604F088
:105010005BF960B942464B463046394604F02CF9FC
:1050200000283FF42EAF009BD9077FF52AAF14F874
:10503000015C029A631E04E09A4200F0C98313F8EF
:10504000015D392D03F10104F6D06A1CD2B21A7049
:1050500017E70B9A002A38D0039A012A40F35682A8
:10506000089B5E1E0C9BB342C0F235829E1B089BC0
:10507000002BC0F20583099A14461A4498440992F9
:105080000121504601F084F9054621E00123B8F1E1
:10509000000F0D93BFF67AADC4F1010309934FF0F1
:1050A000000875E5484603F015FE32463B4604F01D
:1050B000E3F800287FF450AD09F1FF394CE5724B5D
:1050C0000293029817B0BDE8F08F0C9E099C0B9DCF
:1050D000002C0CDDB8F1000F09DD4445099A234688
:1050E000A8BF4346D21A0992E41AA8EB03080C9B06
:1050F000D3B10B9B002B00F08F81002E10DD2946D1
:105100003246504601F000FA5A46014605465046DE
:1051100001F054F959460746504601F037F8BB46AE
:105120000C9B9A1B40F079810121504601F030F927
:10513000B9F1000F074600F39080039B012B40F369
:10514000778100260120B9F1000F40F091804044A2
:1051500010F01F0077D0C0F12003042B40F38083B0
:10516000C0F11C00099B0344099304448044099B3B
:10517000002B05DD59461A46504601F011FA8346C8
:10518000B8F1000F05DD39464246504601F008FAF5
:1051900007460D9B002B40F02481089B002B40F319
:1051A000FB800B9B002B7FD1069B01330693029C57
:1051B000DDF82080012607E0594600230A225046E8
:1051C00000F0EEFF0136834639465846FFF79CFB58
:1051D000B04500F1300004F8010BEDDC03464FF060
:1051E0000009594601225046009301F0D9F9394689
:1051F000834601F03BFA002814F8012C40F3788133
:10520000631E029904E0994200F08D8113F8012D8C
:10521000392A03F10104F6D001321A70394650469A
:1052200000F0B4FF002D3FF42CAEB9F1000F05D013
:10523000A94503D04946504600F0A8FF29465046EC
:1052400000F0A4FF1DE61C208CE70124B7E4C3F1A5
:105250002006009B03FA06F048E401464A46504601
:1052600001F052F9039B012B074640F3B981002658
:105270003B6907EB8303186901F03AF8C0F120009D
:1052800065E700BF00002440CCA8000029460023A9
:105290000A22504600F084FF0F9B002B054640F386
:1052A000CE82CDF818800893002C00F30D81002EDB
:1052B00040F0CA81A846009B0399029E03F00102B8
:1052C0000B920A430A92089A731E1A4409923946AD
:1052D0005846FFF719FB29460090584601F0C6F9D9
:1052E000424681463946504601F0DCF9009BC268CF
:1052F00004463033002A41D101465846089301F054
:10530000B5F921460490504600F040FF049A089BEE
:105310001AB90A99002900F07A82B9F1000F06F152
:105320000104C0F27481039941EA09090B9951EA19
:10533000090100F06C81002A00F3A981099A3370F9
:10534000B24200F0B081594600230A22504600F0D4
:1053500027FF4545834629464FF000034FF00A02D8
:10536000504613D000F01CFF4146054600230A2298
:10537000504600F015FF26468046A8E701465046F5
:10538000049300F003FF0122049BC6E700F008FF2E
:105390002646054680469AE7039B022B40F3818010
:1053A000089B002B7FF4AFAD39460522504600F034
:1053B000F7FE01460746584601F058F900287FF7E6
:1053C000A2AD029C069B312204F8012B013301336C
:1053D00039465046069300F0D9FE002D7FF42EAFDB
:1053E0004FE53946584601F041F90028BFF6D5AEE1
:1053F000594600230A22504600F0D2FE069B03F1D4
:10540000FF380B9B8346002B7FF440AF0F9B002B94
:1054100040F30A820893CAE60C9A5946504601F0B6
:1054200073F8834680E6A54B02930333FFF7E2BB94
:10543000DDE9001200297FF484AEC2F31303002BD0
:1054400000F0D980009E7DE601230B930A9D002D7C
:1054500049DD0F9508950021172DCAF844107FF7F4
:1054600016AC012204235B0003F11400A84211468C
:1054700002F10102F7D9CAF8441008E401230B93A2
:105480000A9B069A13440F930133012B1D46089380
:10549000B8BF0125DFE700230B93F1E700230B934F
:1054A000D4E70B9B002B7FF4FFAE39465846FFF73D
:1054B0002BFA069A029C00F130030132069204F89E
:1054C000013B4FF000098CE629462246504601F088
:1054D00067F80546EBE60C9B0C96F31A99440026F8
:1054E000C5E5022601E401230A930893FFF7CABB2E
:1054F00003D1009BDB073FF583AE631E01E013F889
:10550000012D302A03F10104F9D087E60E9A002A12
:1055100000F0CF8003F23343099A0C9E14461A44DC
:1055200098440992ACE5069A01320692029A312318
:10553000137073E6304603F0CDFBDDE9002303F082
:1055400033FC00225E4B03F079FA0446A1F150755A
:1055500000225C4BDDE9000103F06EFA22462B4687
:1055600006460F4603F0B0FE002840F08D8022462C
:1055700005F100433046394603F088FE00283FF429
:105580009AAC00273D46BEE400F0F980069B5C42E1
:105590004D4B04F00F0203EBC203D3E90023DDE916
:1055A000040103F001FC2411CDE9000100F0E780C3
:1055B000464D00230226E70705D5D5E9002303F071
:1055C000F3FB01360123641005F10805F3D1002B2C
:1055D0003FF4A4ABCDE90001FFF7A0BB0D905BE564
:1055E000009B002B7FF443AEDDE90012C2F31303EE
:1055F000002B7FF43CAE364E1640002E3FF4A2AD99
:10560000099B0133099308F1010801269AE50699DF
:10561000002A01F10101069112DD5946012250468E
:10562000039300F0BDFF3946834601F01FF80028C0
:10563000039B40F3DF80392B00F0D180009B313396
:10564000A94633704546E9E56968504600F078FDA3
:105650000446002800F019812B6902339A0005F1F5
:105660000C010C30FDF7E6FA21460122504600F00D
:1056700097FF80461FE6DDF800B0DDF80CA000E4DF
:10568000DDE908239C1AFBE400273D4699E6069ACB
:10569000392B02F10102069200F0A1800133A946E4
:1056A00033704546BAE5069A0132A9460692454648
:1056B00097E5149BC3F136032EE700BFD0A8000086
:1056C00000001C400000144038A9000028AA000077
:1056D0000000F07FDDE9000103F066FB029B1D7016
:1056E000109B012BCDE9000123D0109B029ACDF82D
:1056F00040901344C146984600226D4B30463946CF
:1057000003F052FB0F46064603F0FEFD054603F08C
:10571000E1FA303502460B463046394603F08CF943
:1057200004F8015B444506460F46E5D1C846DDF85E
:105730004090604B0022DDE9000103F07FF9324622
:105740003B4603F0A3FD00284ED1DDE900230020F5
:10575000584903F071F932463B4603F0B5FD002885
:105760003FF4A9AB00E0144614F8013C302B04F1DF
:10577000FF32F8D0129B01330693FFF782BB02265B
:10578000FFF7CCBA089B002B3FF4D4AE0F9F002F3D
:105790007FF791AB0022464B2046294603F004FBDD
:1057A00004460D46701CCDE9004503F093FA2246ED
:1057B0002B4603F0F9FA404B002203F03FF9069B19
:1057C0001097013B0446A1F150751293FFF7C9BA37
:1057D000069A0132069231221A70FFF752BB392223
:1057E000A946327045460BE5129B0133069314F827
:1057F000015C1EE47FF424AFDA077FF521AF1AE7DE
:10580000129B0133DA460693DDF800B011E4069AE4
:10581000392B02F10102069206F10104DFD0B9F141
:10582000000F3FF70BAF0BE7039B022B02DCCDF819
:1058300018803AE60F9B0893CDF81880B0E5039BDB
:10584000022BF7DC0F9BCDF8188008932CE5129BF8
:1058500001330693FFF7EDBB184B0293FFF724B912
:105860003FF485ACC0F13C007CE40024CAF844401D
:105870002146504600F064FC029068B9104B114874
:1058800000224FF4D57101F0F7FF02460C4B0D4892
:1058900040F2EA2101F0F0FF4FF0FF330893029A43
:1058A0000F930123CAF840200A940B93FFF707BB1C
:1058B000000024400000E03F00001C40D4A800008D
:1058C000E0A80000F4A80000B1F90C309AB22DE96C
:1058D000F0410C461107804648D4626843F40063E7
:1058E000002AA3815DDDA56A002D57D000229BB25E
:1058F000D8F80060E169C8F8002013F4805254D150
:1059000001234046A847431C66D0A389A56AE169E4
:105910005F0705D56268236B801A0BB1E36BC01A71
:10592000024600234046A847451C48D1D8F800202D
:10593000B4F90C30002A5CD01D2A01D0162A64D19B
:1059400022690021C4E9002123F40063A381216BB3
:10595000C8F8006011B304F14003994202D04046F8
:1059600000F0CEF900202063BDE8F0812669AEB1D9
:105970002568266091070CBF63690023AD1BA360F7
:105980000AE02B463246676AE1694046B84700287C
:10599000A5EB000506440ADD002DF2DC0020BDE881
:1059A000F081E26B002A9EDCF8E7206DB0E7A38966
:1059B00043F04003A3814FF0FF30BDE8F081B4F91C
:1059C0000C302269226023F4006300226260DA0452
:1059D000A381BCD52065BAE7D8F80030002B94D05D
:1059E0001D2B0FD0162B0DD0A38943F04003A381AC
:1059F000D5E723F400632169A381DB04C4E9001225
:105A0000A5D5E7E7C8F80060C8E743F04003A381E5
:105A1000C5E700BF10B5044682B008B1836B23B15F
:105A2000B1F90C0048B902B010BD019100F0F8F8CE
:105A30000199B1F90C000028F5D0204602B0BDE86C
:105A40001040FFF741BF00BF20B1054B0146186869
:105A5000FFF7E0BF034B0449186800F071BA00BFBC
:105A60001000002068A80000155A000000207047B0
:105A7000014900F065BA00BF457900002DE9F84FF3
:105A800045682C4BC3630024074600F53B72042392
:105A90000321C0E9B912C0F8E0422146EB6005F1EC
:105AA0005C006C66C5E90044AC60C5E90444AC61C7
:105AB0000822FDF759F9DFF888B0BE68DFF884A046
:105AC000DFF88490DFF884801B4BC5F82C80C5E993
:105AD000075BC5E909A92146F360082206F15C00CD
